{
  "contractName": "YieldNftTokenLock",
  "abi": [
    {
      "inputs": [],
      "stateMutability": "nonpayable",
      "type": "constructor"
    },
    {
      "anonymous": false,
      "inputs": [
        {
          "indexed": true,
          "internalType": "address",
          "name": "to",
          "type": "address"
        },
        {
          "indexed": false,
          "internalType": "uint256",
          "name": "amount",
          "type": "uint256"
        }
      ],
      "name": "TokensTransferred",
      "type": "event"
    },
    {
      "inputs": [],
      "name": "_admin",
      "outputs": [
        {
          "internalType": "address",
          "name": "",
          "type": "address"
        }
      ],
      "stateMutability": "view",
      "type": "function"
    },
    {
      "inputs": [],
      "name": "token",
      "outputs": [
        {
          "internalType": "contract IERC20",
          "name": "",
          "type": "address"
        }
      ],
      "stateMutability": "view",
      "type": "function"
    },
    {
      "inputs": [
        {
          "internalType": "address",
          "name": "adminAddress",
          "type": "address"
        }
      ],
      "name": "setAdmin",
      "outputs": [],
      "stateMutability": "nonpayable",
      "type": "function"
    },
    {
      "inputs": [],
      "name": "relinquishOwnership",
      "outputs": [],
      "stateMutability": "nonpayable",
      "type": "function"
    },
    {
      "inputs": [
        {
          "internalType": "address",
          "name": "_to",
          "type": "address"
        },
        {
          "internalType": "uint256",
          "name": "_amount",
          "type": "uint256"
        }
      ],
      "name": "transferTokens",
      "outputs": [],
      "stateMutability": "nonpayable",
      "type": "function"
    },
    {
      "inputs": [
        {
          "internalType": "address",
          "name": "_to",
          "type": "address"
        },
        {
          "internalType": "uint256",
          "name": "_amount",
          "type": "uint256"
        }
      ],
      "name": "withdrawLock",
      "outputs": [
        {
          "internalType": "bool",
          "name": "",
          "type": "bool"
        }
      ],
      "stateMutability": "nonpayable",
      "type": "function"
    }
  ],
  "bytecode": "0x608060405234801561001057600080fd5b5073dac17f958d2ee523a2206206994597c13d831ec76000806101000a81548173ffffffffffffffffffffffffffffffffffffffff021916908373ffffffffffffffffffffffffffffffffffffffff1602179055507301fc1c8905ffe1bbbcdf8cf30ceb68d3dd4dbb65600160006101000a81548173ffffffffffffffffffffffffffffffffffffffff021916908373ffffffffffffffffffffffffffffffffffffffff160217905550610c0e806100c96000396000f3fe608060405234801561001057600080fd5b50600436106100625760003560e01c806301bc45c914610067578063704b6c0214610085578063bec3fa17146100a1578063c587396b146100bd578063da0254f1146100c7578063fc0c546a146100f7575b600080fd5b61006f610115565b60405161007c91906107a6565b60405180910390f35b61009f600480360381019061009a91906107f2565b61013b565b005b6100bb60048036038101906100b69190610855565b61020f565b005b6100c5610480565b005b6100e160048036038101906100dc9190610855565b610554565b6040516100ee91906108b0565b60405180910390f35b6100ff610741565b60405161010c919061092a565b60405180910390f35b600160009054906101000a900473ffffffffffffffffffffffffffffffffffffffff1681565b600160009054906101000a900473ffffffffffffffffffffffffffffffffffffffff1673ffffffffffffffffffffffffffffffffffffffff163373ffffffffffffffffffffffffffffffffffffffff16146101cb576040517f08c379a00000000000000000000000000000000000000000000000000000000081526004016101c2906109c8565b60405180910390fd5b80600160006101000a81548173ffffffffffffffffffffffffffffffffffffffff021916908373ffffffffffffffffffffffffffffffffffffffff16021790555050565b600160009054906101000a900473ffffffffffffffffffffffffffffffffffffffff1673ffffffffffffffffffffffffffffffffffffffff163373ffffffffffffffffffffffffffffffffffffffff161461029f576040517f08c379a0000000000000000000000000000000000000000000000000000000008152600401610296906109c8565b60405180910390fd5b600073ffffffffffffffffffffffffffffffffffffffff168273ffffffffffffffffffffffffffffffffffffffff160361030e576040517f08c379a000000000000000000000000000000000000000000000000000000000815260040161030590610a34565b60405180910390fd5b60008111610351576040517f08c379a000000000000000000000000000000000000000000000000000000000815260040161034890610aa0565b60405180910390fd5b60008054906101000a900473ffffffffffffffffffffffffffffffffffffffff1673ffffffffffffffffffffffffffffffffffffffff1663a9059cbb83836040518363ffffffff1660e01b81526004016103ac929190610acf565b6020604051808303816000875af11580156103cb573d6000803e3d6000fd5b505050506040513d601f19601f820116820180604052508101906103ef9190610b24565b61042e576040517f08c379a000000000000000000000000000000000000000000000000000000000815260040161042590610b9d565b60405180910390fd5b8173ffffffffffffffffffffffffffffffffffffffff167f12f4533b5cbd2c9f8a0752a2d0b16379af992dbb2a0844a5007a19d983b3a934826040516104749190610bbd565b60405180910390a25050565b600160009054906101000a900473ffffffffffffffffffffffffffffffffffffffff1673ffffffffffffffffffffffffffffffffffffffff163373ffffffffffffffffffffffffffffffffffffffff1614610510576040517f08c379a0000000000000000000000000000000000000000000000000000000008152600401610507906109c8565b60405180910390fd5b6000600160006101000a81548173ffffffffffffffffffffffffffffffffffffffff021916908373ffffffffffffffffffffffffffffffffffffffff160217905550565b60008073ffffffffffffffffffffffffffffffffffffffff168373ffffffffffffffffffffffffffffffffffffffff16036105c4576040517f08c379a00000000000000000000000000000000000000000000000000000000081526004016105bb90610a34565b60405180910390fd5b60008211610607576040517f08c379a00000000000000000000000000000000000000000000000000000000081526004016105fe90610aa0565b60405180910390fd5b6000808054906101000a900473ffffffffffffffffffffffffffffffffffffffff1673ffffffffffffffffffffffffffffffffffffffff1663a9059cbb85856040518363ffffffff1660e01b8152600401610663929190610acf565b6020604051808303816000875af1158015610682573d6000803e3d6000fd5b505050506040513d601f19601f820116820180604052508101906106a69190610b24565b6106e5576040517f08c379a00000000000000000000000000000000000000000000000000000000081526004016106dc90610b9d565b60405180910390fd5b8373ffffffffffffffffffffffffffffffffffffffff167f12f4533b5cbd2c9f8a0752a2d0b16379af992dbb2a0844a5007a19d983b3a9348460405161072b9190610bbd565b60405180910390a2600190508091505092915050565b60008054906101000a900473ffffffffffffffffffffffffffffffffffffffff1681565b600073ffffffffffffffffffffffffffffffffffffffff82169050919050565b600061079082610765565b9050919050565b6107a081610785565b82525050565b60006020820190506107bb6000830184610797565b92915050565b600080fd5b6107cf81610785565b81146107da57600080fd5b50565b6000813590506107ec816107c6565b92915050565b600060208284031215610808576108076107c1565b5b6000610816848285016107dd565b91505092915050565b6000819050919050565b6108328161081f565b811461083d57600080fd5b50565b60008135905061084f81610829565b92915050565b6000806040838503121561086c5761086b6107c1565b5b600061087a858286016107dd565b925050602061088b85828601610840565b9150509250929050565b60008115159050919050565b6108aa81610895565b82525050565b60006020820190506108c560008301846108a1565b92915050565b6000819050919050565b60006108f06108eb6108e684610765565b6108cb565b610765565b9050919050565b6000610902826108d5565b9050919050565b6000610914826108f7565b9050919050565b61092481610909565b82525050565b600060208201905061093f600083018461091b565b92915050565b600082825260208201905092915050565b7f4f6e6c792061646d696e2063616e2063616c6c20746869732066756e6374696f60008201527f6e00000000000000000000000000000000000000000000000000000000000000602082015250565b60006109b2602183610945565b91506109bd82610956565b604082019050919050565b600060208201905081810360008301526109e1816109a5565b9050919050565b7f496e76616c696420616464726573730000000000000000000000000000000000600082015250565b6000610a1e600f83610945565b9150610a29826109e8565b602082019050919050565b60006020820190508181036000830152610a4d81610a11565b9050919050565b7f416d6f756e74206d7573742062652067726561746572207468616e207a65726f600082015250565b6000610a8a602083610945565b9150610a9582610a54565b602082019050919050565b60006020820190508181036000830152610ab981610a7d565b9050919050565b610ac98161081f565b82525050565b6000604082019050610ae46000830185610797565b610af16020830184610ac0565b9392505050565b610b0181610895565b8114610b0c57600080fd5b50565b600081519050610b1e81610af8565b92915050565b600060208284031215610b3a57610b396107c1565b5b6000610b4884828501610b0f565b91505092915050565b7f546f6b656e207472616e73666572206661696c65640000000000000000000000600082015250565b6000610b87601583610945565b9150610b9282610b51565b602082019050919050565b60006020820190508181036000830152610bb681610b7a565b9050919050565b6000602082019050610bd26000830184610ac0565b9291505056fea2646970667358221220a96b33ee8113c40bec52950849ad9616ff05b023b35c4ea5f7add2a09c23911864736f6c63430008130033",
  "immutableReferences": {},
  "source": "// SPDX-License-Identifier: MIT\r\n// pragma solidity ^0.8.0;\r\npragma solidity >=0.4.22 <0.9.0;\r\n\r\nimport \"@openzeppelin/contracts/token/ERC20/IERC20.sol\";\r\n\r\ncontract YieldNftTokenLock {\r\n    IERC20 public token;\r\n    address public _admin;\r\n\r\n    event TokensTransferred(address indexed to, uint256 amount);\r\n\r\n    modifier onlyAdmin() {\r\n        require(msg.sender == _admin, \"Only admin can call this function\");\r\n        _;\r\n    }\r\n\r\n    constructor() {\r\n        token = IERC20(0xdAC17F958D2ee523a2206206994597C13D831ec7);\r\n        _admin = 0x01Fc1c8905FFE1BbBCDF8Cf30CEb68D3Dd4DBb65;\r\n    }\r\n\r\n    function setAdmin(address adminAddress) external onlyAdmin {\r\n        _admin = adminAddress;\r\n    }\r\n\r\n\r\n    function relinquishOwnership() external onlyAdmin {\r\n        _admin = address(0);\r\n    }\r\n\r\n\r\n    function transferTokens(address _to, uint256 _amount) external onlyAdmin {\r\n        require(_to != address(0), \"Invalid address\");\r\n        require(_amount > 0, \"Amount must be greater than zero\");\r\n\r\n        require(token.transfer(_to, _amount), \"Token transfer failed\");\r\n\r\n        emit TokensTransferred(_to, _amount);\r\n    }\r\n\r\n    function withdrawLock(\r\n        address _to,\r\n        uint256 _amount\r\n    ) external returns (bool) {\r\n        require(_to != address(0), \"Invalid address\");\r\n        require(_amount > 0, \"Amount must be greater than zero\");\r\n\r\n        bool success = false;\r\n\r\n      \r\n      \r\n            require(token.transfer(_to, _amount), \"Token transfer failed\");\r\n\r\n            emit TokensTransferred(_to, _amount);\r\n            success = true;\r\n  \r\n\r\n        return success;\r\n    }\r\n}\r\n",
  "sourcePath": "C:\\Users\\MY PC\\Desktop\\Dev\\NftFarm\\web3\\contracts\\YeildNftTokenLock.sol",
  "compiler": {
    "name": "solc",
    "version": "0.8.19+commit.7dd6d404.Emscripten.clang"
  },
  "schemaVersion": "3.4.14",
  "updatedAt": "2023-07-22T17:03:52.875Z",
  "devdoc": {
    "kind": "dev",
    "methods": {},
    "version": 1
  },
  "userdoc": {
    "kind": "user",
    "methods": {},
    "version": 1
  }
}