{
  "contractName": "YieldNftTokenLock",
  "abi": [
    {
      "inputs": [
        {
          "internalType": "address",
          "name": "_tokenAddress",
          "type": "address"
        },
        {
          "internalType": "address",
          "name": "adminAddress",
          "type": "address"
        }
      ],
      "stateMutability": "nonpayable",
      "type": "constructor"
    },
    {
      "anonymous": false,
      "inputs": [
        {
          "indexed": true,
          "internalType": "address",
          "name": "to",
          "type": "address"
        },
        {
          "indexed": false,
          "internalType": "uint256",
          "name": "amount",
          "type": "uint256"
        }
      ],
      "name": "TokensTransferred",
      "type": "event"
    },
    {
      "inputs": [],
      "name": "_admin",
      "outputs": [
        {
          "internalType": "address",
          "name": "",
          "type": "address"
        }
      ],
      "stateMutability": "view",
      "type": "function"
    },
    {
      "inputs": [],
      "name": "token",
      "outputs": [
        {
          "internalType": "contract IERC20",
          "name": "",
          "type": "address"
        }
      ],
      "stateMutability": "view",
      "type": "function"
    },
    {
      "inputs": [
        {
          "internalType": "uint256",
          "name": "",
          "type": "uint256"
        }
      ],
      "name": "withdrawalRecord",
      "outputs": [
        {
          "internalType": "address",
          "name": "user",
          "type": "address"
        },
        {
          "internalType": "uint256",
          "name": "amount",
          "type": "uint256"
        },
        {
          "internalType": "uint256",
          "name": "timestamp",
          "type": "uint256"
        },
        {
          "internalType": "string",
          "name": "txType",
          "type": "string"
        }
      ],
      "stateMutability": "view",
      "type": "function"
    },
    {
      "inputs": [
        {
          "internalType": "address",
          "name": "adminAddress",
          "type": "address"
        }
      ],
      "name": "setAdmin",
      "outputs": [],
      "stateMutability": "nonpayable",
      "type": "function"
    },
    {
      "inputs": [],
      "name": "getAdmin",
      "outputs": [
        {
          "internalType": "address",
          "name": "",
          "type": "address"
        }
      ],
      "stateMutability": "view",
      "type": "function"
    },
    {
      "inputs": [],
      "name": "relinquishOwnership",
      "outputs": [],
      "stateMutability": "nonpayable",
      "type": "function"
    },
    {
      "inputs": [],
      "name": "getBalance",
      "outputs": [
        {
          "internalType": "uint256",
          "name": "",
          "type": "uint256"
        }
      ],
      "stateMutability": "view",
      "type": "function"
    },
    {
      "inputs": [
        {
          "internalType": "address",
          "name": "_to",
          "type": "address"
        },
        {
          "internalType": "uint256",
          "name": "_amount",
          "type": "uint256"
        }
      ],
      "name": "transferTokens",
      "outputs": [],
      "stateMutability": "nonpayable",
      "type": "function"
    },
    {
      "inputs": [
        {
          "internalType": "address",
          "name": "_to",
          "type": "address"
        },
        {
          "internalType": "uint256",
          "name": "_amount",
          "type": "uint256"
        },
        {
          "internalType": "string",
          "name": "_txType",
          "type": "string"
        }
      ],
      "name": "withdrawLock",
      "outputs": [
        {
          "internalType": "bool",
          "name": "",
          "type": "bool"
        }
      ],
      "stateMutability": "nonpayable",
      "type": "function"
    },
    {
      "inputs": [],
      "name": "getWithdrawalRecord",
      "outputs": [
        {
          "components": [
            {
              "internalType": "address",
              "name": "user",
              "type": "address"
            },
            {
              "internalType": "uint256",
              "name": "amount",
              "type": "uint256"
            },
            {
              "internalType": "uint256",
              "name": "timestamp",
              "type": "uint256"
            },
            {
              "internalType": "string",
              "name": "txType",
              "type": "string"
            }
          ],
          "internalType": "struct YieldNftTokenLock.Withdrawal[]",
          "name": "",
          "type": "tuple[]"
        }
      ],
      "stateMutability": "view",
      "type": "function"
    }
  ],
  "bytecode": "0x608060405234801562000010575f80fd5b50604051620019eb380380620019eb833981810160405281019062000036919062000122565b815f806101000a81548173ffffffffffffffffffffffffffffffffffffffff021916908373ffffffffffffffffffffffffffffffffffffffff1602179055508060015f6101000a81548173ffffffffffffffffffffffffffffffffffffffff021916908373ffffffffffffffffffffffffffffffffffffffff160217905550505062000167565b5f80fd5b5f73ffffffffffffffffffffffffffffffffffffffff82169050919050565b5f620000ec82620000c1565b9050919050565b620000fe81620000e0565b811462000109575f80fd5b50565b5f815190506200011c81620000f3565b92915050565b5f80604083850312156200013b576200013a620000bd565b5b5f6200014a858286016200010c565b92505060206200015d858286016200010c565b9150509250929050565b61187680620001755f395ff3fe608060405234801561000f575f80fd5b506004361061009c575f3560e01c8063bec3fa1711610064578063bec3fa1714610134578063c587396b14610150578063d0a1ce521461015a578063dc03df921461018a578063fc0c546a146101bd5761009c565b806301bc45c9146100a057806312065fe0146100be57806357667a3e146100dc5780636e9960c3146100fa578063704b6c0214610118575b5f80fd5b6100a86101db565b6040516100b59190610d08565b60405180910390f35b6100c6610200565b6040516100d39190610d39565b60405180910390f35b6100e461032c565b6040516100f19190610f15565b60405180910390f35b610102610480565b60405161010f9190610d08565b60405180910390f35b610132600480360381019061012d9190610f70565b6104a8565b005b61014e60048036038101906101499190610fc5565b61057a565b005b6101586107e4565b005b610174600480360381019061016f919061112f565b6108b5565b60405161018191906111b5565b60405180910390f35b6101a4600480360381019061019f91906111ce565b610bc6565b6040516101b49493929190611241565b60405180910390f35b6101c5610ca6565b6040516101d291906112e6565b60405180910390f35b60015f9054906101000a900473ffffffffffffffffffffffffffffffffffffffff1681565b5f60015f9054906101000a900473ffffffffffffffffffffffffffffffffffffffff1673ffffffffffffffffffffffffffffffffffffffff163373ffffffffffffffffffffffffffffffffffffffff1614610290576040517f08c379a00000000000000000000000000000000000000000000000000000000081526004016102879061136f565b60405180910390fd5b5f8054906101000a900473ffffffffffffffffffffffffffffffffffffffff1673ffffffffffffffffffffffffffffffffffffffff166370a08231306040518263ffffffff1660e01b81526004016102e89190610d08565b602060405180830381865afa158015610303573d5f803e3d5ffd5b505050506040513d601f19601f8201168201806040525081019061032791906113a1565b905090565b60606002805480602002602001604051908101604052809291908181526020015f905b82821015610477578382905f5260205f2090600402016040518060800160405290815f82015f9054906101000a900473ffffffffffffffffffffffffffffffffffffffff1673ffffffffffffffffffffffffffffffffffffffff1673ffffffffffffffffffffffffffffffffffffffff16815260200160018201548152602001600282015481526020016003820180546103e8906113f9565b80601f0160208091040260200160405190810160405280929190818152602001828054610414906113f9565b801561045f5780601f106104365761010080835404028352916020019161045f565b820191905f5260205f20905b81548152906001019060200180831161044257829003601f168201915b5050505050815250508152602001906001019061034f565b50505050905090565b5f60015f9054906101000a900473ffffffffffffffffffffffffffffffffffffffff16905090565b60015f9054906101000a900473ffffffffffffffffffffffffffffffffffffffff1673ffffffffffffffffffffffffffffffffffffffff163373ffffffffffffffffffffffffffffffffffffffff1614610537576040517f08c379a000000000000000000000000000000000000000000000000000000000815260040161052e9061136f565b60405180910390fd5b8060015f6101000a81548173ffffffffffffffffffffffffffffffffffffffff021916908373ffffffffffffffffffffffffffffffffffffffff16021790555050565b60015f9054906101000a900473ffffffffffffffffffffffffffffffffffffffff1673ffffffffffffffffffffffffffffffffffffffff163373ffffffffffffffffffffffffffffffffffffffff1614610609576040517f08c379a00000000000000000000000000000000000000000000000000000000081526004016106009061136f565b60405180910390fd5b5f73ffffffffffffffffffffffffffffffffffffffff168273ffffffffffffffffffffffffffffffffffffffff1603610677576040517f08c379a000000000000000000000000000000000000000000000000000000000815260040161066e90611473565b60405180910390fd5b5f81116106b9576040517f08c379a00000000000000000000000000000000000000000000000000000000081526004016106b0906114db565b60405180910390fd5b5f8054906101000a900473ffffffffffffffffffffffffffffffffffffffff1673ffffffffffffffffffffffffffffffffffffffff1663a9059cbb83836040518363ffffffff1660e01b81526004016107139291906114f9565b6020604051808303815f875af115801561072f573d5f803e3d5ffd5b505050506040513d601f19601f82011682018060405250810190610753919061154a565b610792576040517f08c379a0000000000000000000000000000000000000000000000000000000008152600401610789906115bf565b60405180910390fd5b8173ffffffffffffffffffffffffffffffffffffffff167f12f4533b5cbd2c9f8a0752a2d0b16379af992dbb2a0844a5007a19d983b3a934826040516107d89190610d39565b60405180910390a25050565b60015f9054906101000a900473ffffffffffffffffffffffffffffffffffffffff1673ffffffffffffffffffffffffffffffffffffffff163373ffffffffffffffffffffffffffffffffffffffff1614610873576040517f08c379a000000000000000000000000000000000000000000000000000000000815260040161086a9061136f565b60405180910390fd5b5f60015f6101000a81548173ffffffffffffffffffffffffffffffffffffffff021916908373ffffffffffffffffffffffffffffffffffffffff160217905550565b5f8073ffffffffffffffffffffffffffffffffffffffff168473ffffffffffffffffffffffffffffffffffffffff1603610924576040517f08c379a000000000000000000000000000000000000000000000000000000000815260040161091b90611473565b60405180910390fd5b5f8311610966576040517f08c379a000000000000000000000000000000000000000000000000000000000815260040161095d906114db565b60405180910390fd5b5f8060405180608001604052808773ffffffffffffffffffffffffffffffffffffffff168152602001868152602001428152602001858152509050600281908060018154018082558091505060019003905f5260205f2090600402015f909190919091505f820151815f015f6101000a81548173ffffffffffffffffffffffffffffffffffffffff021916908373ffffffffffffffffffffffffffffffffffffffff16021790555060208201518160010155604082015181600201556060820151816003019081610a379190611771565b50505060015f9054906101000a900473ffffffffffffffffffffffffffffffffffffffff1673ffffffffffffffffffffffffffffffffffffffff163373ffffffffffffffffffffffffffffffffffffffff1614610bba575f8054906101000a900473ffffffffffffffffffffffffffffffffffffffff1673ffffffffffffffffffffffffffffffffffffffff1663a9059cbb87876040518363ffffffff1660e01b8152600401610ae89291906114f9565b6020604051808303815f875af1158015610b04573d5f803e3d5ffd5b505050506040513d601f19601f82011682018060405250810190610b28919061154a565b610b67576040517f08c379a0000000000000000000000000000000000000000000000000000000008152600401610b5e906115bf565b60405180910390fd5b8573ffffffffffffffffffffffffffffffffffffffff167f12f4533b5cbd2c9f8a0752a2d0b16379af992dbb2a0844a5007a19d983b3a93486604051610bad9190610d39565b60405180910390a2600191505b81925050509392505050565b60028181548110610bd5575f80fd5b905f5260205f2090600402015f91509050805f015f9054906101000a900473ffffffffffffffffffffffffffffffffffffffff1690806001015490806002015490806003018054610c25906113f9565b80601f0160208091040260200160405190810160405280929190818152602001828054610c51906113f9565b8015610c9c5780601f10610c7357610100808354040283529160200191610c9c565b820191905f5260205f20905b815481529060010190602001808311610c7f57829003601f168201915b5050505050905084565b5f8054906101000a900473ffffffffffffffffffffffffffffffffffffffff1681565b5f73ffffffffffffffffffffffffffffffffffffffff82169050919050565b5f610cf282610cc9565b9050919050565b610d0281610ce8565b82525050565b5f602082019050610d1b5f830184610cf9565b92915050565b5f819050919050565b610d3381610d21565b82525050565b5f602082019050610d4c5f830184610d2a565b92915050565b5f81519050919050565b5f82825260208201905092915050565b5f819050602082019050919050565b610d8481610ce8565b82525050565b610d9381610d21565b82525050565b5f81519050919050565b5f82825260208201905092915050565b5f5b83811015610dd0578082015181840152602081019050610db5565b5f8484015250505050565b5f601f19601f8301169050919050565b5f610df582610d99565b610dff8185610da3565b9350610e0f818560208601610db3565b610e1881610ddb565b840191505092915050565b5f608083015f830151610e385f860182610d7b565b506020830151610e4b6020860182610d8a565b506040830151610e5e6040860182610d8a565b5060608301518482036060860152610e768282610deb565b9150508091505092915050565b5f610e8e8383610e23565b905092915050565b5f602082019050919050565b5f610eac82610d52565b610eb68185610d5c565b935083602082028501610ec885610d6c565b805f5b85811015610f035784840389528151610ee48582610e83565b9450610eef83610e96565b925060208a01995050600181019050610ecb565b50829750879550505050505092915050565b5f6020820190508181035f830152610f2d8184610ea2565b905092915050565b5f604051905090565b5f80fd5b5f80fd5b610f4f81610ce8565b8114610f59575f80fd5b50565b5f81359050610f6a81610f46565b92915050565b5f60208284031215610f8557610f84610f3e565b5b5f610f9284828501610f5c565b91505092915050565b610fa481610d21565b8114610fae575f80fd5b50565b5f81359050610fbf81610f9b565b92915050565b5f8060408385031215610fdb57610fda610f3e565b5b5f610fe885828601610f5c565b9250506020610ff985828601610fb1565b9150509250929050565b5f80fd5b5f80fd5b7f4e487b71000000000000000000000000000000000000000000000000000000005f52604160045260245ffd5b61104182610ddb565b810181811067ffffffffffffffff821117156110605761105f61100b565b5b80604052505050565b5f611072610f35565b905061107e8282611038565b919050565b5f67ffffffffffffffff82111561109d5761109c61100b565b5b6110a682610ddb565b9050602081019050919050565b828183375f83830152505050565b5f6110d36110ce84611083565b611069565b9050828152602081018484840111156110ef576110ee611007565b5b6110fa8482856110b3565b509392505050565b5f82601f83011261111657611115611003565b5b81356111268482602086016110c1565b91505092915050565b5f805f6060848603121561114657611145610f3e565b5b5f61115386828701610f5c565b935050602061116486828701610fb1565b925050604084013567ffffffffffffffff81111561118557611184610f42565b5b61119186828701611102565b9150509250925092565b5f8115159050919050565b6111af8161119b565b82525050565b5f6020820190506111c85f8301846111a6565b92915050565b5f602082840312156111e3576111e2610f3e565b5b5f6111f084828501610fb1565b91505092915050565b5f82825260208201905092915050565b5f61121382610d99565b61121d81856111f9565b935061122d818560208601610db3565b61123681610ddb565b840191505092915050565b5f6080820190506112545f830187610cf9565b6112616020830186610d2a565b61126e6040830185610d2a565b81810360608301526112808184611209565b905095945050505050565b5f819050919050565b5f6112ae6112a96112a484610cc9565b61128b565b610cc9565b9050919050565b5f6112bf82611294565b9050919050565b5f6112d0826112b5565b9050919050565b6112e0816112c6565b82525050565b5f6020820190506112f95f8301846112d7565b92915050565b7f4f6e6c792061646d696e2063616e2063616c6c20746869732066756e6374696f5f8201527f6e00000000000000000000000000000000000000000000000000000000000000602082015250565b5f6113596021836111f9565b9150611364826112ff565b604082019050919050565b5f6020820190508181035f8301526113868161134d565b9050919050565b5f8151905061139b81610f9b565b92915050565b5f602082840312156113b6576113b5610f3e565b5b5f6113c38482850161138d565b91505092915050565b7f4e487b71000000000000000000000000000000000000000000000000000000005f52602260045260245ffd5b5f600282049050600182168061141057607f821691505b602082108103611423576114226113cc565b5b50919050565b7f496e76616c6964206164647265737300000000000000000000000000000000005f82015250565b5f61145d600f836111f9565b915061146882611429565b602082019050919050565b5f6020820190508181035f83015261148a81611451565b9050919050565b7f416d6f756e74206d7573742062652067726561746572207468616e207a65726f5f82015250565b5f6114c56020836111f9565b91506114d082611491565b602082019050919050565b5f6020820190508181035f8301526114f2816114b9565b9050919050565b5f60408201905061150c5f830185610cf9565b6115196020830184610d2a565b9392505050565b6115298161119b565b8114611533575f80fd5b50565b5f8151905061154481611520565b92915050565b5f6020828403121561155f5761155e610f3e565b5b5f61156c84828501611536565b91505092915050565b7f546f6b656e207472616e73666572206661696c656400000000000000000000005f82015250565b5f6115a96015836111f9565b91506115b482611575565b602082019050919050565b5f6020820190508181035f8301526115d68161159d565b9050919050565b5f819050815f5260205f209050919050565b5f6020601f8301049050919050565b5f82821b905092915050565b5f600883026116397fffffffffffffffffffffffffffffffffffffffffffffffffffffffffffffffff826115fe565b61164386836115fe565b95508019841693508086168417925050509392505050565b5f61167561167061166b84610d21565b61128b565b610d21565b9050919050565b5f819050919050565b61168e8361165b565b6116a261169a8261167c565b84845461160a565b825550505050565b5f90565b6116b66116aa565b6116c1818484611685565b505050565b5b818110156116e4576116d95f826116ae565b6001810190506116c7565b5050565b601f821115611729576116fa816115dd565b611703846115ef565b81016020851015611712578190505b61172661171e856115ef565b8301826116c6565b50505b505050565b5f82821c905092915050565b5f6117495f198460080261172e565b1980831691505092915050565b5f611761838361173a565b9150826002028217905092915050565b61177a82610d99565b67ffffffffffffffff8111156117935761179261100b565b5b61179d82546113f9565b6117a88282856116e8565b5f60209050601f8311600181146117d9575f84156117c7578287015190505b6117d18582611756565b865550611838565b601f1984166117e7866115dd565b5f5b8281101561180e578489015182556001820191506020850194506020810190506117e9565b8683101561182b5784890151611827601f89168261173a565b8355505b6001600288020188555050505b50505050505056fea26469706673582212209945003b00feec40ab6cb9ae1813bcd5947a07e4b99c89c0c0670ceb0e1f389f64736f6c63430008140033",
  "immutableReferences": {},
  "source": "// //SPDX License Identifier: MIT\r\n// pragma solidity ^0.8.0;\r\n\r\n// import \"@openzeppelin/contracts/token/ERC20/IERC20.sol\";\r\n// // import \"@openzeppelin/contracts/access/Ownable.sol\";\r\n\r\n// // interface IERC20 {\r\n// //     function transfer(address recipient, uint256 amount) external returns (bool);\r\n// //     function transferFrom(address sender, address recipient, uint256 amount) external returns(bool);\r\n// // }\r\n\r\n\r\n// contract YeildNftTokenLock  {\r\n  \r\n\r\n//     IERC20 public token;\r\n//     address public _admin;\r\n\r\n//     struct Withdrawal {\r\n//         address user;\r\n//         uint256 amount;\r\n//         uint256 timestamp;\r\n//         string txType;\r\n//     }\r\n\r\n//     Withdrawal public withdrawalRecord;\r\n\r\n\r\n//     event TokensTransferred(address indexed to, uint256 amount);\r\n\r\n//     modifier _onlyAdmin() {\r\n//         require(msg.sender == _admin, \"Only _admin can call this function\");\r\n//         _;\r\n//     }\r\n\r\n//     constructor(address _tokenAddress, address adminAddress) {\r\n//         token = IERC20(_tokenAddress);\r\n//         _admin = adminAddress;\r\n//     }\r\n\r\n//     function setAdmin(address adminAddress) external _onlyAdmin {\r\n//         _admin = adminAddress;\r\n//     }\r\n\r\n//     function getAdmin() external view returns (address) {\r\n//         return _admin;\r\n//     }\r\n\r\n//     function relinquishOwnership() external _onlyAdmin {\r\n//         _admin = address(0);\r\n//     }\r\n\r\n\r\n\r\n\r\n//     function getBalance() external view _onlyAdmin() returns (uint256)  {\r\n//         return token.balanceOf(address(this));\r\n//     }\r\n   \r\n\r\n//     function transferTokens(address _to, uint256 _amount) external _onlyAdmin {\r\n//         require(_to != address(0), \"Invalid address\");\r\n//         require(_amount > 0, \"Amount must be greater than zero\");\r\n\r\n//         // Transfer tokens to the specified address\r\n//         require(token.transfer(_to, _amount), \"Token transfer failed\");\r\n\r\n//         emit TokensTransferred(_to, _amount);\r\n//     }\r\n\r\n//     function withdrawLock (address _to, uint256 _amount, string memory _txType) external returns (bool) {\r\n//         require(_to != address(0), \"Invalid address\");\r\n//         require(_amount > 0, \"Amount must be greater than zero\");\r\n\r\n//         bool success = false;\r\n\r\n//         Withdrawal memory newWithdrawal = Withdrawal({\r\n//             user: _to,\r\n//             amount: _amount,\r\n//             timestamp: block.timestamp,\r\n//             txType: _txType\r\n//         });\r\n//       withdrawalRecord.push(newWithdrawal);\r\n\r\n\r\n//       if (msg.sender != _admin) {\r\n\r\n\r\n//         require(token.transfer(_to, _amount), \"Token transfer failed\");\r\n\r\n//         emit TokensTransferred(_to, _amount);\r\n//         success = true;\r\n\r\n//       }\r\n//         return success;\r\n\r\n     \r\n//     }\r\n\r\n//     function getWithdrawalRecord() external view returns (Withdrawal[] memory) {\r\n//         return withdrawalRecord;\r\n//     }\r\n// }\r\n\r\n\r\n\r\n// SPDX License Identifier: MIT\r\npragma solidity ^0.8.0;\r\n\r\nimport \"@openzeppelin/contracts/token/ERC20/IERC20.sol\";\r\n\r\ncontract YieldNftTokenLock {\r\n    IERC20 public token;\r\n    address public _admin;\r\n\r\n    struct Withdrawal {\r\n        address user;\r\n        uint256 amount;\r\n        uint256 timestamp;\r\n        string txType;\r\n    }\r\n\r\n    Withdrawal[] public withdrawalRecord;\r\n\r\n    event TokensTransferred(address indexed to, uint256 amount);\r\n\r\n    modifier onlyAdmin() {\r\n        require(msg.sender == _admin, \"Only admin can call this function\");\r\n        _;\r\n    }\r\n\r\n    constructor(address _tokenAddress, address adminAddress) {\r\n        token = IERC20(_tokenAddress);\r\n        _admin = adminAddress;\r\n    }\r\n\r\n    function setAdmin(address adminAddress) external onlyAdmin {\r\n        _admin = adminAddress;\r\n    }\r\n\r\n    function getAdmin() external view returns (address) {\r\n        return _admin;\r\n    }\r\n\r\n    function relinquishOwnership() external onlyAdmin {\r\n        _admin = address(0);\r\n    }\r\n\r\n    function getBalance() external view onlyAdmin returns (uint256) {\r\n        return token.balanceOf(address(this));\r\n    }\r\n\r\n    function transferTokens(address _to, uint256 _amount) external onlyAdmin {\r\n        require(_to != address(0), \"Invalid address\");\r\n        require(_amount > 0, \"Amount must be greater than zero\");\r\n\r\n        require(token.transfer(_to, _amount), \"Token transfer failed\");\r\n\r\n        emit TokensTransferred(_to, _amount);\r\n    }\r\n\r\n    function withdrawLock(\r\n        address _to,\r\n        uint256 _amount,\r\n        string memory _txType\r\n    ) external returns (bool) {\r\n        require(_to != address(0), \"Invalid address\");\r\n        require(_amount > 0, \"Amount must be greater than zero\");\r\n\r\n        bool success = false;\r\n\r\n        Withdrawal memory newWithdrawal = Withdrawal({\r\n            user: _to,\r\n            amount: _amount,\r\n            timestamp: block.timestamp,\r\n            txType: _txType\r\n        });\r\n        withdrawalRecord.push(newWithdrawal);\r\n\r\n        if (msg.sender != _admin) {\r\n            require(token.transfer(_to, _amount), \"Token transfer failed\");\r\n\r\n            emit TokensTransferred(_to, _amount);\r\n            success = true;\r\n        }\r\n\r\n        return success;\r\n    }\r\n\r\n    function getWithdrawalRecord() external view returns (Withdrawal[] memory) {\r\n        return withdrawalRecord;\r\n    }\r\n}\r\n",
  "sourcePath": "C:\\Users\\MY PC\\Desktop\\Dev\\NftFarm\\Web3\\contracts\\YeildNFTTokenLock.sol",
  "compiler": {
    "name": "solc",
    "version": "0.8.20+commit.a1b79de6.Emscripten.clang"
  },
  "schemaVersion": "3.4.14",
  "updatedAt": "2023-07-07T20:13:38.769Z",
  "devdoc": {
    "kind": "dev",
    "methods": {},
    "version": 1
  },
  "userdoc": {
    "kind": "user",
    "methods": {},
    "version": 1
  }
}