{
  "contractName": "YieldNftTokenLock",
  "abi": [
    {
      "inputs": [],
      "stateMutability": "nonpayable",
      "type": "constructor"
    },
    {
      "anonymous": false,
      "inputs": [
        {
          "indexed": true,
          "internalType": "address",
          "name": "to",
          "type": "address"
        },
        {
          "indexed": false,
          "internalType": "uint256",
          "name": "amount",
          "type": "uint256"
        }
      ],
      "name": "TokensTransferred",
      "type": "event"
    },
    {
      "inputs": [],
      "name": "_admin",
      "outputs": [
        {
          "internalType": "address",
          "name": "",
          "type": "address"
        }
      ],
      "stateMutability": "view",
      "type": "function",
      "constant": true
    },
    {
      "inputs": [],
      "name": "token",
      "outputs": [
        {
          "internalType": "contract IERC20",
          "name": "",
          "type": "address"
        }
      ],
      "stateMutability": "view",
      "type": "function",
      "constant": true
    },
    {
      "inputs": [
        {
          "internalType": "uint256",
          "name": "",
          "type": "uint256"
        }
      ],
      "name": "withdrawalRecord",
      "outputs": [
        {
          "internalType": "address",
          "name": "user",
          "type": "address"
        },
        {
          "internalType": "uint256",
          "name": "amount",
          "type": "uint256"
        },
        {
          "internalType": "uint256",
          "name": "timestamp",
          "type": "uint256"
        },
        {
          "internalType": "string",
          "name": "txType",
          "type": "string"
        }
      ],
      "stateMutability": "view",
      "type": "function",
      "constant": true
    },
    {
      "inputs": [
        {
          "internalType": "address",
          "name": "adminAddress",
          "type": "address"
        }
      ],
      "name": "setAdmin",
      "outputs": [],
      "stateMutability": "nonpayable",
      "type": "function"
    },
    {
      "inputs": [],
      "name": "getAdmin",
      "outputs": [
        {
          "internalType": "address",
          "name": "",
          "type": "address"
        }
      ],
      "stateMutability": "view",
      "type": "function",
      "constant": true
    },
    {
      "inputs": [],
      "name": "relinquishOwnership",
      "outputs": [],
      "stateMutability": "nonpayable",
      "type": "function"
    },
    {
      "inputs": [],
      "name": "getBalance",
      "outputs": [
        {
          "internalType": "uint256",
          "name": "",
          "type": "uint256"
        }
      ],
      "stateMutability": "view",
      "type": "function",
      "constant": true
    },
    {
      "inputs": [
        {
          "internalType": "address",
          "name": "_to",
          "type": "address"
        },
        {
          "internalType": "uint256",
          "name": "_amount",
          "type": "uint256"
        }
      ],
      "name": "transferTokens",
      "outputs": [],
      "stateMutability": "nonpayable",
      "type": "function"
    },
    {
      "inputs": [
        {
          "internalType": "address",
          "name": "_to",
          "type": "address"
        },
        {
          "internalType": "uint256",
          "name": "_amount",
          "type": "uint256"
        },
        {
          "internalType": "string",
          "name": "_txType",
          "type": "string"
        }
      ],
      "name": "withdrawLock",
      "outputs": [
        {
          "internalType": "bool",
          "name": "",
          "type": "bool"
        }
      ],
      "stateMutability": "nonpayable",
      "type": "function"
    },
    {
      "inputs": [],
      "name": "getWithdrawalRecord",
      "outputs": [
        {
          "components": [
            {
              "internalType": "address",
              "name": "user",
              "type": "address"
            },
            {
              "internalType": "uint256",
              "name": "amount",
              "type": "uint256"
            },
            {
              "internalType": "uint256",
              "name": "timestamp",
              "type": "uint256"
            },
            {
              "internalType": "string",
              "name": "txType",
              "type": "string"
            }
          ],
          "internalType": "struct YieldNftTokenLock.Withdrawal[]",
          "name": "",
          "type": "tuple[]"
        }
      ],
      "stateMutability": "view",
      "type": "function",
      "constant": true
    }
  ],
  "bytecode": "0x608060405234801561001057600080fd5b5073874069fa1eb16d44d622f2e0ca25eea172369bc16000806101000a81548173ffffffffffffffffffffffffffffffffffffffff021916908373ffffffffffffffffffffffffffffffffffffffff16021790555073db339be8e04db248ea2bdd7c308c5589c121c6bb600160006101000a81548173ffffffffffffffffffffffffffffffffffffffff021916908373ffffffffffffffffffffffffffffffffffffffff160217905550611917806100c96000396000f3fe608060405234801561001057600080fd5b506004361061009e5760003560e01c8063bec3fa1711610066578063bec3fa1714610137578063c587396b14610153578063d0a1ce521461015d578063dc03df921461018d578063fc0c546a146101c05761009e565b806301bc45c9146100a357806312065fe0146100c157806357667a3e146100df5780636e9960c3146100fd578063704b6c021461011b575b600080fd5b6100ab6101de565b6040516100b89190610d3f565b60405180910390f35b6100c9610204565b6040516100d69190610d73565b60405180910390f35b6100e7610335565b6040516100f49190610f61565b60405180910390f35b610105610490565b6040516101129190610d3f565b60405180910390f35b61013560048036038101906101309190610fc3565b6104ba565b005b610151600480360381019061014c919061101c565b61058e565b005b61015b6107ff565b005b61017760048036038101906101729190611191565b6108d3565b604051610184919061121b565b60405180910390f35b6101a760048036038101906101a29190611236565b610bf2565b6040516101b794939291906112ad565b60405180910390f35b6101c8610cda565b6040516101d59190611358565b60405180910390f35b600160009054906101000a900473ffffffffffffffffffffffffffffffffffffffff1681565b6000600160009054906101000a900473ffffffffffffffffffffffffffffffffffffffff1673ffffffffffffffffffffffffffffffffffffffff163373ffffffffffffffffffffffffffffffffffffffff1614610296576040517f08c379a000000000000000000000000000000000000000000000000000000000815260040161028d906113e5565b60405180910390fd5b60008054906101000a900473ffffffffffffffffffffffffffffffffffffffff1673ffffffffffffffffffffffffffffffffffffffff166370a08231306040518263ffffffff1660e01b81526004016102ef9190610d3f565b602060405180830381865afa15801561030c573d6000803e3d6000fd5b505050506040513d601f19601f82011682018060405250810190610330919061141a565b905090565b60606002805480602002602001604051908101604052809291908181526020016000905b8282101561048757838290600052602060002090600402016040518060800160405290816000820160009054906101000a900473ffffffffffffffffffffffffffffffffffffffff1673ffffffffffffffffffffffffffffffffffffffff1673ffffffffffffffffffffffffffffffffffffffff16815260200160018201548152602001600282015481526020016003820180546103f690611476565b80601f016020809104026020016040519081016040528092919081815260200182805461042290611476565b801561046f5780601f106104445761010080835404028352916020019161046f565b820191906000526020600020905b81548152906001019060200180831161045257829003601f168201915b50505050508152505081526020019060010190610359565b50505050905090565b6000600160009054906101000a900473ffffffffffffffffffffffffffffffffffffffff16905090565b600160009054906101000a900473ffffffffffffffffffffffffffffffffffffffff1673ffffffffffffffffffffffffffffffffffffffff163373ffffffffffffffffffffffffffffffffffffffff161461054a576040517f08c379a0000000000000000000000000000000000000000000000000000000008152600401610541906113e5565b60405180910390fd5b80600160006101000a81548173ffffffffffffffffffffffffffffffffffffffff021916908373ffffffffffffffffffffffffffffffffffffffff16021790555050565b600160009054906101000a900473ffffffffffffffffffffffffffffffffffffffff1673ffffffffffffffffffffffffffffffffffffffff163373ffffffffffffffffffffffffffffffffffffffff161461061e576040517f08c379a0000000000000000000000000000000000000000000000000000000008152600401610615906113e5565b60405180910390fd5b600073ffffffffffffffffffffffffffffffffffffffff168273ffffffffffffffffffffffffffffffffffffffff160361068d576040517f08c379a0000000000000000000000000000000000000000000000000000000008152600401610684906114f3565b60405180910390fd5b600081116106d0576040517f08c379a00000000000000000000000000000000000000000000000000000000081526004016106c79061155f565b60405180910390fd5b60008054906101000a900473ffffffffffffffffffffffffffffffffffffffff1673ffffffffffffffffffffffffffffffffffffffff1663a9059cbb83836040518363ffffffff1660e01b815260040161072b92919061157f565b6020604051808303816000875af115801561074a573d6000803e3d6000fd5b505050506040513d601f19601f8201168201806040525081019061076e91906115d4565b6107ad576040517f08c379a00000000000000000000000000000000000000000000000000000000081526004016107a49061164d565b60405180910390fd5b8173ffffffffffffffffffffffffffffffffffffffff167f12f4533b5cbd2c9f8a0752a2d0b16379af992dbb2a0844a5007a19d983b3a934826040516107f39190610d73565b60405180910390a25050565b600160009054906101000a900473ffffffffffffffffffffffffffffffffffffffff1673ffffffffffffffffffffffffffffffffffffffff163373ffffffffffffffffffffffffffffffffffffffff161461088f576040517f08c379a0000000000000000000000000000000000000000000000000000000008152600401610886906113e5565b60405180910390fd5b6000600160006101000a81548173ffffffffffffffffffffffffffffffffffffffff021916908373ffffffffffffffffffffffffffffffffffffffff160217905550565b60008073ffffffffffffffffffffffffffffffffffffffff168473ffffffffffffffffffffffffffffffffffffffff1603610943576040517f08c379a000000000000000000000000000000000000000000000000000000000815260040161093a906114f3565b60405180910390fd5b60008311610986576040517f08c379a000000000000000000000000000000000000000000000000000000000815260040161097d9061155f565b60405180910390fd5b60008060405180608001604052808773ffffffffffffffffffffffffffffffffffffffff168152602001868152602001428152602001858152509050600281908060018154018082558091505060019003906000526020600020906004020160009091909190915060008201518160000160006101000a81548173ffffffffffffffffffffffffffffffffffffffff021916908373ffffffffffffffffffffffffffffffffffffffff16021790555060208201518160010155604082015181600201556060820151816003019081610a5e919061180f565b505050600160009054906101000a900473ffffffffffffffffffffffffffffffffffffffff1673ffffffffffffffffffffffffffffffffffffffff163373ffffffffffffffffffffffffffffffffffffffff1614610be65760008054906101000a900473ffffffffffffffffffffffffffffffffffffffff1673ffffffffffffffffffffffffffffffffffffffff1663a9059cbb87876040518363ffffffff1660e01b8152600401610b1192919061157f565b6020604051808303816000875af1158015610b30573d6000803e3d6000fd5b505050506040513d601f19601f82011682018060405250810190610b5491906115d4565b610b93576040517f08c379a0000000000000000000000000000000000000000000000000000000008152600401610b8a9061164d565b60405180910390fd5b8573ffffffffffffffffffffffffffffffffffffffff167f12f4533b5cbd2c9f8a0752a2d0b16379af992dbb2a0844a5007a19d983b3a93486604051610bd99190610d73565b60405180910390a2600191505b81925050509392505050565b60028181548110610c0257600080fd5b90600052602060002090600402016000915090508060000160009054906101000a900473ffffffffffffffffffffffffffffffffffffffff1690806001015490806002015490806003018054610c5790611476565b80601f0160208091040260200160405190810160405280929190818152602001828054610c8390611476565b8015610cd05780601f10610ca557610100808354040283529160200191610cd0565b820191906000526020600020905b815481529060010190602001808311610cb357829003601f168201915b5050505050905084565b60008054906101000a900473ffffffffffffffffffffffffffffffffffffffff1681565b600073ffffffffffffffffffffffffffffffffffffffff82169050919050565b6000610d2982610cfe565b9050919050565b610d3981610d1e565b82525050565b6000602082019050610d546000830184610d30565b92915050565b6000819050919050565b610d6d81610d5a565b82525050565b6000602082019050610d886000830184610d64565b92915050565b600081519050919050565b600082825260208201905092915050565b6000819050602082019050919050565b610dc381610d1e565b82525050565b610dd281610d5a565b82525050565b600081519050919050565b600082825260208201905092915050565b60005b83811015610e12578082015181840152602081019050610df7565b60008484015250505050565b6000601f19601f8301169050919050565b6000610e3a82610dd8565b610e448185610de3565b9350610e54818560208601610df4565b610e5d81610e1e565b840191505092915050565b6000608083016000830151610e806000860182610dba565b506020830151610e936020860182610dc9565b506040830151610ea66040860182610dc9565b5060608301518482036060860152610ebe8282610e2f565b9150508091505092915050565b6000610ed78383610e68565b905092915050565b6000602082019050919050565b6000610ef782610d8e565b610f018185610d99565b935083602082028501610f1385610daa565b8060005b85811015610f4f5784840389528151610f308582610ecb565b9450610f3b83610edf565b925060208a01995050600181019050610f17565b50829750879550505050505092915050565b60006020820190508181036000830152610f7b8184610eec565b905092915050565b6000604051905090565b600080fd5b600080fd5b610fa081610d1e565b8114610fab57600080fd5b50565b600081359050610fbd81610f97565b92915050565b600060208284031215610fd957610fd8610f8d565b5b6000610fe784828501610fae565b91505092915050565b610ff981610d5a565b811461100457600080fd5b50565b60008135905061101681610ff0565b92915050565b6000806040838503121561103357611032610f8d565b5b600061104185828601610fae565b925050602061105285828601611007565b9150509250929050565b600080fd5b600080fd5b7f4e487b7100000000000000000000000000000000000000000000000000000000600052604160045260246000fd5b61109e82610e1e565b810181811067ffffffffffffffff821117156110bd576110bc611066565b5b80604052505050565b60006110d0610f83565b90506110dc8282611095565b919050565b600067ffffffffffffffff8211156110fc576110fb611066565b5b61110582610e1e565b9050602081019050919050565b82818337600083830152505050565b600061113461112f846110e1565b6110c6565b9050828152602081018484840111156111505761114f611061565b5b61115b848285611112565b509392505050565b600082601f8301126111785761117761105c565b5b8135611188848260208601611121565b91505092915050565b6000806000606084860312156111aa576111a9610f8d565b5b60006111b886828701610fae565b93505060206111c986828701611007565b925050604084013567ffffffffffffffff8111156111ea576111e9610f92565b5b6111f686828701611163565b9150509250925092565b60008115159050919050565b61121581611200565b82525050565b6000602082019050611230600083018461120c565b92915050565b60006020828403121561124c5761124b610f8d565b5b600061125a84828501611007565b91505092915050565b600082825260208201905092915050565b600061127f82610dd8565b6112898185611263565b9350611299818560208601610df4565b6112a281610e1e565b840191505092915050565b60006080820190506112c26000830187610d30565b6112cf6020830186610d64565b6112dc6040830185610d64565b81810360608301526112ee8184611274565b905095945050505050565b6000819050919050565b600061131e61131961131484610cfe565b6112f9565b610cfe565b9050919050565b600061133082611303565b9050919050565b600061134282611325565b9050919050565b61135281611337565b82525050565b600060208201905061136d6000830184611349565b92915050565b7f4f6e6c792061646d696e2063616e2063616c6c20746869732066756e6374696f60008201527f6e00000000000000000000000000000000000000000000000000000000000000602082015250565b60006113cf602183611263565b91506113da82611373565b604082019050919050565b600060208201905081810360008301526113fe816113c2565b9050919050565b60008151905061141481610ff0565b92915050565b6000602082840312156114305761142f610f8d565b5b600061143e84828501611405565b91505092915050565b7f4e487b7100000000000000000000000000000000000000000000000000000000600052602260045260246000fd5b6000600282049050600182168061148e57607f821691505b6020821081036114a1576114a0611447565b5b50919050565b7f496e76616c696420616464726573730000000000000000000000000000000000600082015250565b60006114dd600f83611263565b91506114e8826114a7565b602082019050919050565b6000602082019050818103600083015261150c816114d0565b9050919050565b7f416d6f756e74206d7573742062652067726561746572207468616e207a65726f600082015250565b6000611549602083611263565b915061155482611513565b602082019050919050565b600060208201905081810360008301526115788161153c565b9050919050565b60006040820190506115946000830185610d30565b6115a16020830184610d64565b9392505050565b6115b181611200565b81146115bc57600080fd5b50565b6000815190506115ce816115a8565b92915050565b6000602082840312156115ea576115e9610f8d565b5b60006115f8848285016115bf565b91505092915050565b7f546f6b656e207472616e73666572206661696c65640000000000000000000000600082015250565b6000611637601583611263565b915061164282611601565b602082019050919050565b600060208201905081810360008301526116668161162a565b9050919050565b60008190508160005260206000209050919050565b60006020601f8301049050919050565b600082821b905092915050565b6000600883026116cf7fffffffffffffffffffffffffffffffffffffffffffffffffffffffffffffffff82611692565b6116d98683611692565b95508019841693508086168417925050509392505050565b600061170c61170761170284610d5a565b6112f9565b610d5a565b9050919050565b6000819050919050565b611726836116f1565b61173a61173282611713565b84845461169f565b825550505050565b600090565b61174f611742565b61175a81848461171d565b505050565b5b8181101561177e57611773600082611747565b600181019050611760565b5050565b601f8211156117c3576117948161166d565b61179d84611682565b810160208510156117ac578190505b6117c06117b885611682565b83018261175f565b50505b505050565b600082821c905092915050565b60006117e6600019846008026117c8565b1980831691505092915050565b60006117ff83836117d5565b9150826002028217905092915050565b61181882610dd8565b67ffffffffffffffff81111561183157611830611066565b5b61183b8254611476565b611846828285611782565b600060209050601f8311600181146118795760008415611867578287015190505b61187185826117f3565b8655506118d9565b601f1984166118878661166d565b60005b828110156118af5784890151825560018201915060208501945060208101905061188a565b868310156118cc57848901516118c8601f8916826117d5565b8355505b6001600288020188555050505b50505050505056fea264697066735822122030d4e4d43d7449dd72a645aecdaf9a68fe1230ef87ac34a1729da80580b0c50a64736f6c63430008130033",
  "immutableReferences": {},
  "source": "// SPDX-License-Identifier: MIT\r\n// pragma solidity ^0.8.0;\r\npragma solidity >=0.4.22 <0.9.0;\r\n\r\nimport \"@openzeppelin/contracts/token/ERC20/IERC20.sol\";\r\n\r\ncontract YieldNftTokenLock {\r\n    IERC20 public token;\r\n    address public _admin;\r\n\r\n    struct Withdrawal {\r\n        address user;\r\n        uint256 amount;\r\n        uint256 timestamp;\r\n        string txType;\r\n    }\r\n\r\n    Withdrawal[] public withdrawalRecord;\r\n\r\n    event TokensTransferred(address indexed to, uint256 amount);\r\n\r\n    modifier onlyAdmin() {\r\n        require(msg.sender == _admin, \"Only admin can call this function\");\r\n        _;\r\n    }\r\n\r\n    constructor() {\r\n        token = IERC20(0x874069Fa1Eb16D44d622F2e0Ca25eeA172369bC1);\r\n        _admin = 0xdb339be8E04Db248ea2bdD7C308c5589c121C6Bb;\r\n    }\r\n\r\n    function setAdmin(address adminAddress) external onlyAdmin {\r\n        _admin = adminAddress;\r\n    }\r\n\r\n    function getAdmin() external view returns (address) {\r\n        return _admin;\r\n    }\r\n\r\n    function relinquishOwnership() external onlyAdmin {\r\n        _admin = address(0);\r\n    }\r\n\r\n    function getBalance() external view onlyAdmin returns (uint256) {\r\n        return token.balanceOf(address(this));\r\n    }\r\n\r\n    function transferTokens(address _to, uint256 _amount) external onlyAdmin {\r\n        require(_to != address(0), \"Invalid address\");\r\n        require(_amount > 0, \"Amount must be greater than zero\");\r\n\r\n        require(token.transfer(_to, _amount), \"Token transfer failed\");\r\n\r\n        emit TokensTransferred(_to, _amount);\r\n    }\r\n\r\n    function withdrawLock(\r\n        address _to,\r\n        uint256 _amount,\r\n        string memory _txType\r\n    ) external returns (bool) {\r\n        require(_to != address(0), \"Invalid address\");\r\n        require(_amount > 0, \"Amount must be greater than zero\");\r\n\r\n        bool success = false;\r\n\r\n        Withdrawal memory newWithdrawal = Withdrawal({\r\n            user: _to,\r\n            amount: _amount,\r\n            timestamp: block.timestamp,\r\n            txType: _txType\r\n        });\r\n        withdrawalRecord.push(newWithdrawal);\r\n\r\n        if (msg.sender != _admin) {\r\n            require(token.transfer(_to, _amount), \"Token transfer failed\");\r\n\r\n            emit TokensTransferred(_to, _amount);\r\n            success = true;\r\n        }\r\n\r\n        return success;\r\n    }\r\n\r\n    function getWithdrawalRecord() external view returns (Withdrawal[] memory) {\r\n        return withdrawalRecord;\r\n    }\r\n}\r\n",
  "sourcePath": "C:\\Users\\MY PC\\Desktop\\Dev\\NftFarm\\Web3\\contracts\\YeildNftTokenLock.sol",
  "compiler": {
    "name": "solc",
    "version": "0.8.19+commit.7dd6d404.Emscripten.clang"
  },
  "schemaVersion": "3.4.14",
  "updatedAt": "2023-07-07T21:44:13.533Z",
  "networkType": "ethereum",
  "devdoc": {
    "kind": "dev",
    "methods": {},
    "version": 1
  },
  "userdoc": {
    "kind": "user",
    "methods": {},
    "version": 1
  }
}